:020000040000FA
:10000000000300106D010000750100007701000081
:10001000790100007B0100007D010000000000006C
:100020000000000000000000000000007F01000050
:100030008101000000000000830100008501000034
:100040008701000087010000870100008701000090
:1000500087010000650E000087010000290F0000E5
:100060008701000087010000870100008701000070
:100070008701000087010000870100008701000060
:100080008701000087010000870100008701000050
:100090008701000087010000870100008701000040
:1000A0008701000087010000870100008701000030
:1000B0008701000087010000870100008701000020
:1000C00087010000870100008701000000F002F8AE
:1000D00000F03AF80AA090E8000C82448344AAF1A8
:1000E0000107DA4501D100F02FF8AFF2090EBAE8A6
:1000F0000F0013F0010F18BFFB1A43F0010318475C
:1001000090300000B0300000103A24BF78C878C1A9
:10011000FAD8520724BF30C830C144BF04680C600D
:10012000704700000023002400250026103A28BF55
:1001300078C1FBD8520728BF30C148BF0B60704759
:100140001FB51FBD10B510BD00F063F81146FFF7D5
:10015000F7FF01F01BFA00F081F803B4FFF7F2FF9C
:1001600003BC00F089F8000000BF704709488047D1
:1001700009480047FEE7FEE7FEE7FEE7FEE7FEE789
:10018000FEE7FEE7FEE7FEE704480549034A054BA4
:1001900070470000250D0000CD0000000001001098
:1001A000000300100001001010B5203AC0F00B80D1
:1001B000B1E81850203AA0E81850B1E81850A0E86B
:1001C0001850BFF4F5AF5FEA027C24BFB1E81850C5
:1001D000A0E8185044BF18C918C0BDE810405FEA35
:1001E000827C24BF51F8043B40F8043B08BF7047B1
:1001F000D20728BF31F8023B48BF11F8012B28BFB6
:1002000020F8023B48BF00F8012B70477047704749
:100210007047754600F02CF8AE4605006946534617
:1002200020F00700854618B020B5FFF7ADFFBDE808
:1002300020404FF000064FF000074FF000084FF04D
:10024000000B21F00701AC46ACE8C009ACE8C009DE
:10025000ACE8C009ACE8C0098D46704710B504464B
:10026000AFF300802046BDE81040FFF776BF0000E6
:1002700000487047A000001001491820ABBEFEE7FF
:10028000260002007047000070B5054600F01CFD16
:100290001548008848F68911884208D100214E206F
:1002A00001F072FC00214F2001F06EFC07E00021FC
:1002B000202001F069FC0021212001F065FC4FF4B1
:1002C00080000A49C861222001F00CFC01F04CFCBE
:1002D000002403E0284601F035FC641CB4F5963F89
:1002E000F8D301F049FC70BD0400001000C00920E3
:1002F000014908807047000000000010FFFFFFFF69
:100300002DE9F04105460E461446A4F12000C4B282
:1003100004EB4403054F07EB031205EB4503D9003B
:10032000300100F017F8BDE8F0810000B01B0000BC
:1003300070B506460D46144600F0C6FC06E014F8FB
:10034000012B29466D1C3046FFF7DAFF2078002884
:10035000F5D170BD2DE9F04704460D4616464FF025
:100360000009C4F598743548008848F68911884218
:100370001ED1A9B2442001F007FC05F1170045EA9F
:10038000002081B2442001F0FFFBA1B2452001F022
:10039000FBFB04F10F0081B2462001F0F5FBA9B28E
:1003A0004E2001F0F1FBA1B24F2001F0EDFB1BE06C
:1003B000A9B2502001F0E8FB05F1170081B25120ED
:1003C00001F0E2FBA1B2522001F0DEFB04F10F00CC
:1003D00081B2532001F0D8FBA9B2202001F0D4FB58
:1003E000A1B2212001F0D0FB4FF480001449C86174
:1003F000222001F077FB01F0B7FB4FF0000816E078
:100400000F270FE036F819100120B840014021B93C
:100410000C48008801F096FB03E00B48008801F0CF
:1004200091FB7F1E002FEDDAB61C08F10108B8F130
:10043000180FE5DB01F0A0FBBDE8F0870400001019
:1004400000C00920020000100000001010B5FE4896
:10045000006840F07E70FC4908604FF07E70886153
:10046000052000F098FE002001F020FBF7490880ED
:100470000846008844F2315188427CD10121002095
:1004800001F082FB4FF4C561102001F07DFB0621D5
:10049000122001F079FB40F63221132001F074FBA9
:1004A0004021112001F070FB5021152001F06CFB60
:1004B0001621122001F068FB0F2000F06CFE45F2BF
:1004C0006061102001F060FB0F2000F064FE42F636
:1004D0004E21132001F058FB4FF48071012001F0F0
:1004E00053FB4FF44071022001F04EFB41F230010A
:1004F000032001F049FB40F20221082001F044FBF7
:1005000000210A2001F040FB0021302001F03CFBDB
:1005100040F20241312001F037FB4FF48371322069
:1005200001F032FB4FF4E061332001F02DFB4FF47A
:100530008271342001F028FB40F20131352001F0B6
:1005400023FB40F20771362001F01EFB40F205311B
:10055000372001F019FB4FF40271382001F014FB31
:1005600040F60B71392001F00FFB0F2000F013FE55
:100570000221412000E028E001F006FB4FF41C516D
:10058000602001F001FB0121612001F0FDFA40F241
:100590001911902001F0F8FA4FF48571922001F0C2
:1005A000F3FA0421932001F0EFFA4FF48071A020B8
:1005B00001F0EAFA0F2000F0EEFD0021A02001F08A
:1005C000E3FA142000F0E7FD04E2A048008849F2B5
:1005D000253188427DD11021E72001F0D5FA012193
:1005E000002001F0D1FA4FF48071012001F0CCFA23
:1005F0004FF4E061022001F0C7FA41F2300103201C
:1006000001F0C2FA0021042001F0BEFA40F20721F5
:10061000082001F0B9FA0021092001F0B5FA002103
:100620000A2001F0B1FA01210C2001F0ADFA0021FD
:100630000D2001F0A9FA00210F2001F0A5FA0021F8
:10064000102001F0A1FA0721112001F09DFA0021EC
:10065000122001F099FA0021132001F095FA0F20E1
:1006600000F099FD41F29051102001F08DFA40F216
:100670002721112001F088FA0F2000F08CFD9C2129
:10068000122001F081FA0F2000F085FD4FF4C851CF
:10069000132001F079FA2321292001F075FA0E21A7
:1006A0002B2001F071FA0F2000F075FD00212020B1
:1006B00001F06AFA0021212001F066FA0F2000F013
:1006C0006AFD0721302001F05FFA40F20771312006
:1006D00000E085E001F058FA0621322001F054FADA
:1006E00040F20471352001F04FFA41F604713620D2
:1006F00001F04AFA0421372001F046FA002138209F
:1007000001F042FA40F20671392001F03DFA40F260
:1007100001713C2001F038FA0F213D2001F034FA3C
:100720000F2000F038FD0021502001F02DFAEF21BC
:10073000512001F029FA0021522001F025FA40F25F
:100740003F11532001F020FA4FF42741602001F0BF
:100750001BFA0121612001F017FA00216A2001F043
:1007600013FA0021802001F00FFA0021812001F00E
:100770000BFA0021822001F007FA0021832001F00A
:1007800003FA0021842001F0FFF90021852001F007
:10079000FBF91021902001F0F7F90021922001F0DF
:1007A000F3F90321932001F0EFF94FF488719520BC
:1007B00001F0EAF90021972001F0E6F900219820E4
:1007C00001F0E2F940F23311072001F0DDF90021D8
:1007D000202001F0D9F90021212001F0D5F9F9E01C
:1007E0001A48008849F220318842F8D14FF400417C
:1007F000E52001F0C9F90121002001F0C5F94FF40D
:100800008071012001F0C0F94FF4E061022001F095
:10081000BBF941F23001032001F0B6F900210420B8
:1008200001F0B2F940F20221082001F0ADF90021F7
:10083000092001F0A9F900210A2001F0A5F9002101
:100840000C2001F0A1F903E000C009200400001011
:1008500000210D2001F098F900210F2001F094F9FA
:100860000021102001F090F90021112001F08CF9F5
:100870000021122001F088F90021132001F084F9F1
:10088000142000F088FC41F2B071102001F07CF9D6
:1008900040F23711112001F077F9052000F07BFCC0
:1008A00040F23911122001F06FF9052000F073FCBD
:1008B0004FF4E851132001F067F91321292001F0CA
:1008C00063F9052000F067FC0021202001F05CF9AD
:1008D0000021212001F058F90621302001F054F9BF
:1008E00040F20111312001F04FF90321322001F0D3
:1008F0004BF94FF48371352001F046F940F602318F
:10090000362001F041F940F20231372001F03CF984
:1009100040F20771382001F037F90721392001F042
:1009200033F94FF4C0613C2001F02EF940F20B2165
:100930003D2001F029F90021502001F025F9EF2197
:10094000512001F021F90021522001F01DF940F25F
:100950003F11532001F018F94FF41C51602001F0B1
:1009600013F90121612001F00FF900216A2001F043
:100970000BF90021802001F007F90021812001F00E
:1009800003F90021822001F0FFF80021832001F00B
:10099000FBF80021842001F0F7F80021852001F008
:1009A000F3F81021902001F0EFF80021922001F0DF
:1009B000EBF80321932001F0E7F84FF488719520BC
:1009C00001F0E2F80021972001F0DEF800219820E4
:1009D00001F0DAF841F23801032001F0D5F840F2D5
:1009E0007311072001F0D0F89B48008848F6891160
:1009F00088427DD10121002001F0C6F8052000F0D9
:100A0000CAFB4AF6A401032001F0BEF8052000F05D
:100A1000C2FB00210C2001F0B7F8052000F0BBFB61
:100A200040F60C010D2001F0AFF8052000F0B3FBFB
:100A30004FF42C510E2001F0A7F8052000F0ABFB7D
:100A4000B0211E2001F0A0F8052000F0A4FB42F622
:100A50003F31012001F098F8052000F09CFB4FF495
:100A6000C061022001F090F8052000F094FB002105
:100A7000102001F089F8052000F08DFB46F2780186
:100A8000112001F081F8052000F085FB00210520F0
:100A900001F07AF8052000F07EFB0021062001F02D
:100AA00073F8052000F077FB4EF61C71162001F05C
:100AB0006BF8052000F06FFB0321172001F064F8AC
:100AC000052000F068FB40F23321072001F05CF8BC
:100AD000052000F060FB00210B2001F055F80520F7
:100AE00000F059FB00210F2001F04EF8052000E036
:100AF000B1E000F050FB0021412001F045F8052055
:100B000000F049FB0021422001F03EF8052000F0F2
:100B100042FB0021482001F037F8052000F03BFBA4
:100B200040F23F11492001F02FF8052000F033FB7F
:100B300000214A2001F028F8052000F02CFB0021BC
:100B40004B2001F021F8052000F025FB4FF46F4108
:100B5000442001F019F8052000F01DFB002145207C
:100B600001F012F8052000F016FB40F23F1146207C
:100B700001F00AF8052000F00EFB40F2077130206A
:100B800001F002F8052000F006FB4FF4017131205E
:100B900000F0FAFF052000F0FEFA4FF40171322058
:100BA00000F0F2FF052000F0F6FA40F20251332087
:100BB00000F0EAFF052000F0EEFA40F20751342081
:100BC00000F0E2FF052000F0E6FA4FF40171352055
:100BD00000F0DAFF052000F0DEFA4FF40171362054
:100BE00000F0D2FF052000F0D6FA40F20251372083
:100BF00000F0CAFF052000F0CEFA40F202313A20A0
:100C000000F0C2FF052000F0C6FA40F202313B209E
:100C100000F0BAFF052000F0BEFA0021232000F00A
:100C2000B3FF052000F0B7FA0021242000F0ACFF4C
:100C3000052000F0B0FA4FF40041252000F0A4FF99
:100C4000052000F0A8FA00214F2000F09DFF0021B0
:100C50004E2000F099FF10BD0400001070B504464E
:100C60000D461648008848F6891188420BD1A9B272
:100C70004E2000F089FF40F23F10001B81B24F2050
:100C800000F082FF0AE0A9B2202000F07DFF40F2D0
:100C90003F10001B81B2212000F076FF4FF480004E
:100CA0000749C861222000F01DFF0648008800F0B7
:100CB00031FF4FF480000249886170BD04000010CC
:100CC00000C009200000001010B51548008848F643
:100CD0008911884212D10021442000F055FF4FF4C1
:100CE0006F41442000F050FF0021452000F04CFFF0
:100CF00040F23F11462000F047FF10E00021502055
:100D000000F042FFEF21512000F03EFF0021522071
:100D100000F03AFF40F23F11532000F035FF10BDC4
:100D20000400001020204B4908604B48D0F8A00177
:100D300000F0200030B100BF4648006800F04000DD
:100D40000028F9D0032043499C390860002042491B
:100D5000C1F8A8013F490C31086001203D49943990
:100D600008603E483C4984310860AA203A498C31E9
:100D70000860552008600120374980310860AA20AA
:100D800035498C31086055203349C1F88C0000BFCB
:100D900031488830006800F080600028F8D00320D7
:100DA0002D4980310860AA202B49C1F88C005520BC
:100DB00029498C31086000BF27488830006800F05E
:100DC0004070B0F1407FF7D123202349A43108605F
:100DD000AA202149C1F8AC0055201F49AC31086058
:100DE00001201D49A0310860AA201B49AC310860D0
:100DF00055201949C1F8AC0000BF1748A830006859
:100E000000F480600028F8D003201349A031086066
:100E1000AA201149C1F8AC0055200F49AC31086037
:100E200000BF0D48A830006800F44070B0F5407F66
:100E3000F7D10B480849C431086000200649C1F8C1
:100E4000C8010846006820F4704040F48040086003
:100E500070470000A0C10F4000C00F4063000500B4
:100E6000DE87280430B500BF2A4B9B68D8B24010FB
:100E700000F0070003281FD1264B197D01F09E03C7
:100E800023B1254B1960234B1A7830BD01F00103C3
:100E9000002B3CD01F4B1B78204C214D2D686355F7
:100EA0001F4B1B685B1C1E4C236023461B68402B9A
:100EB0002DD1002323602AE0022811D1154B1C7884
:100EC000164B174D2D685C55154B1B685B1C144C5D
:100ED000236023461B68402B19D10023236016E0B2
:100EE000062806D10C4B1B6843F480730A4C236020
:100EF0000DE001280BD1074B197D01F020031BB138
:100F00000123084C237002E00023064C237000BF2D
:100F1000BBE7000000C000400800001020000010E7
:100F2000140000101000001030B500BF2A4B9B6861
:100F3000D8B2401000F0070003281FD1264B197DBE
:100F400001F09E0323B1254B1960234B1A7830BD65
:100F500001F00103002B3CD01F4B1B78204C214D8E
:100F60002D6863551F4B1B685B1C1E4C236023467A
:100F70001B68402B2DD1002323602AE0022811D1C9
:100F8000154B1C78164B174D2D685C55154B1B687F
:100F90005B1C144C236023461B68402B19D1002393
:100FA000236016E0062806D10C4B1B6843F48073BF
:100FB0000A4C23600DE001280BD1074B197D01F08D
:100FC00020031BB10123084C237002E00023064CD0
:100FD000237000BFBBE70000008009400C00001038
:100FE0006000001018000010110000102DE9F04101
:100FF00007468846002F3CD14248006820F0F000A8
:10100000404908600846006840F0500008603E48CB
:101010000068C0F3811636B1012E08D0022E09D027
:10102000032E0BD000BF3948006884080AE0374817
:10103000046807E035480068440803E03348006866
:10104000C40800BF00BF8320314908732009B0FBEA
:10105000F8F5280A08710D7003200873072008723C
:10106000052000F08BF80720294948600020BDE8E2
:10107000F081022F43D12448E438006840F08070AA
:101080002449C1F8C4001F48006820F470001D49BD
:1010900008600846006840F4A00008601A48001D77
:1010A0000068C0F3014636B1012E08D0022E09D0E7
:1010B000032E0BD000BF1548006884080AE01348CF
:1010C000046807E011480068440803E00F4800681E
:1010D000C40800BF00BF83200F4908732009B0FB7C
:1010E000F8F5280A08710D700320087307200872AC
:1010F00000F044F80720084948600020B7E70120C5
:10110000B5E7000000C00240A8C10F401C0000105D
:1011100000C0004000C00F400080094010B590B9E9
:101120000EE000BF114B1B7803F00103002BF9D038
:101130000B780F4C237000230C4C2370491C521E5B
:10114000002AEED111E00EE000BF0A4B1B7803F03D
:101150000103002BF9D00B78074C23700023054CBA
:101160002370491C521E002AEED110BD1000001041
:1011700000C000401100001000800940002809DB79
:1011800000F01F02012191404209920002F1E02289
:10119000C2F800117047800400BF011EA0F10100D9
:1011A000FBD1704738B504460848006800901F20FE
:1011B000FFF79EF86A4611210820FFF7B9F822468A
:1011C00012210920FFF79CF838BD0000B030000064
:1011D0001CB50446084903C9CDE900011F20FFF7EB
:1011E00087F86A4611210320FFF7A2F82246122150
:1011F0000420FFF785F81CBDB43000002DE9F8434A
:1012000004460D4616461F46DDF8208005EBC50254
:10121000092303EB420104EB84020A2303EB82005F
:101220003B463246CDF8008000F074F84FF6FF7070
:10123000FB1FF21F05EBC50C4FF0060909EB4C0133
:1012400004EB840C4FF00709009009EB8C0000F0D0
:1012500061F84FF6FF70FB1FF21F05EBC50C4FF056
:10126000060909EB4C0104EB840C4FF00D090090CA
:1012700009EB8C0000F04EF81F20A7F10803F21EC6
:1012800005EBC50C4FF0090909EB4C0104EB840C8C
:101290004FF00309009009EB8C0000F03BF81F2091
:1012A000A7F10803F21E05EBC50C4FF0090909EB85
:1012B0004C0104EB840C4FF01109009009EB8C00F9
:1012C00000F028F81F20FB1EA6F1080205EBC50C54
:1012D0004FF0100909EB4C0104EB840C4FF00709A7
:1012E000009009EB8C0000F015F81F20FB1EA6F102
:1012F000080205EBC50C4FF0100909EB4C0104EB9B
:10130000840C4FF00D09009009EB8C0000F002F8FE
:10131000BDE8F8832DE9F04706460F4614461D4602
:10132000DDF820A05046FEF7E3FF204604EBD07125
:10133000A6EB610813E0284605EBD071A7EB610925
:1013400005E049464046FFF789FC09F1010905EB34
:10135000D57107EB61014945F3DA08F1010804EBA7
:10136000D47106EB61014145E5DABDE8F0872DE96E
:10137000F8430646894614274FF012080024D4E0AB
:101380000025CEE004EB840000EBC4003044405D57
:1013900070B9002008FB04F202F1090107FB05F215
:1013A000009002F10A0012231422FFF7B3FFB7E006
:1013B00004EB840000EBC4003044405D01280FD1F1
:1013C00040F2FF7008FB04F202F1090107FB05F28D
:1013D000009002F10A000A230F22FFF79BFF9FE013
:1013E00004EB840000EBC4003044405D02280FD1C0
:1013F0004FF4784008FB04F202F1090107FB05F203
:10140000009002F10A000A231422FFF783FF87E00D
:1014100004EB840000EBC4003044405D03280FD18E
:101420004FF4F04008FB04F202F1090107FB05F25A
:10143000009002F10A000A230C22FFF76BFF6FE015
:1014400004EB840000EBC4003044405D04280ED15E
:101450001F2008FB04F202F1090107FB05F20090CE
:1014600002F10A0012231422FFF754FF58E004EBA4
:10147000840000EBC4003044405D05280FD14BF6DA
:10148000214008FB04F202F1090107FB05F200907C
:1014900002F10A000A231422FFF73CFF40E004EBAC
:1014A000840000EBC4003044405D06280FD14FF4A7
:1014B000FC6008FB04F202F1090107FB05F2009051
:1014C00002F10A0012231422FFF724FF28E004EBA4
:1014D000840000EBC4003044405D072820D10C2C70
:1014E0000FD147F60F0008FB04F202F10D0107FBD4
:1014F00005F2009002F10A0012231422FFF70AFFFE
:101500000EE047F60F0008FB04F202F1090107FBA9
:1015100005F2009002F10A0012231422FFF7FAFEEE
:101520006D1C0D2DFFF62EAF641C0D2CFFF628AFA1
:101530004FF6FF700090D9F8002002EBC202092399
:1015400003EB4201D9F8042002EB82020A2303EBE9
:1015500082001A46FFF7DEFEBDE8F88301460A481E
:10156000006C40F0FF00084A10644FF400109061D6
:101570008010D061104641654FF480109061D061B9
:10158000081250650120704700C009202DE9F04F76
:10159000BBB0FEF75BFF0020FEF776FE4FF0006069
:1015A0003A904000399040003890C01037904FF08A
:1015B00000094FF03308052036904FF0300B4FF400
:1015C00061410020FFF712FDAC22FD490BA8FEF798
:1015D000EBFDFB49AC3103C9CDE90901F849B43150
:1015E00003C9CDE907014CF21860EF233C227721B3
:1015F00000904FF49170FFF78DFE4046FFF7D2FD4B
:101600005846FFF7E5FD17E2EE48006858B1EE488E
:1016100090F800A0EB480268EB490020FFF77EFD40
:101620000020E8490860E948406B3A99084048457D
:1016300002D0BAF1770F10D14FF0300A079810B9E5
:101640000798079009E00798401E07900BF10100EA
:1016500000F0FF0B5846FFF7BBFDDC48406B3999A3
:101660000840484502D0BAF1730F0AD14FF0300A52
:1016700007980C2802D10798079002E00798401CB1
:101680000790D248406B38990840484502D0BAF1DB
:10169000640F0AD14FF0300A08980C2802D108983C
:1016A000089002E00898401C0890C848406B3799A1
:1016B0000840484502D0BAF1610F09D14FF0300A15
:1016C000089810B90898089002E00898401E089001
:1016D000079800EB800101EBC0000BA908440899B2
:1016E000405C01280AD0079800EB800101EBC000A4
:1016F0000BA908440899405C022832D14FF4784085
:1017000000900A231A46DDE90710FFF777FD00264F
:1017100000E0761CAE488642FBDBA8F1010000F039
:10172000FF08099807900A980890B8F1300F15D172
:101730004FF0300BFEF78AFE0020FEF7A5FDA5A3B3
:101740000FCBCDE90523CDE903011F20FEF7D0FD26
:1017500003AA03210520FEF7EBFD6EE14046FFF7EB
:1017600021FD079800EB800101EBC0000BA90844A4
:101770000899405C032839D10898002833DC4FF4DD
:10178000784000900A231A46DDE90710FFF736FD7E
:10179000002600E0761C8E488642FBDBA8F10100A3
:1017A00000F0FF08099807900A980890B8F1300FE8
:1017B00015D14FF0300BFEF749FE0020FEF764FD17
:1017C00084A30FCBCDE90523CDE903011F20FEF74C
:1017D0008FFD03AA03210520FEF7AAFD2DE1404657
:1017E000FFF7E0FC02E00898401E0890079800EB25
:1017F000800101EBC0000BA908440899405C052852
:1018000040D108980C2833DB4FF4784000900A232D
:101810001A46DDE90710FFF7F1FC002600E0761C10
:101820006B488642FBDBA8F1010000F0FF08099835
:1018300007900A980890B8F1300F15D14FF0300B8F
:10184000FEF704FE0020FEF71FFD62A30FCBCDE9DB
:101850000523CDE903011F20FEF74AFD03AA03215A
:101860000520FEF765FDE8E04046FFF79BFC09E038
:101870000798032803D00898401C089002E00898B5
:10188000801C0890079800EB800101EBC0000BA9B9
:1018900008440899405C06282ED10420079901EBE2
:1018A000810202EBC1010BAA1144089A88543698B0
:1018B000401E3690099807900A9808900BF1050091
:1018C00000F0FF0B5846FFF783FC369898B9FEF7F7
:1018D000BDFD0020FEF7D8FC18223949BC3101A813
:1018E000FEF762FC1F20FEF703FD01AA012105207F
:1018F000FEF71EFDA1E000BF00248DE0012C07D003
:10190000052C05D0072C03D0092C01D00B2C22D19B
:1019100004EB840000EBC4000BA90844077B0025FE
:101920000FE004EB840000EBC4000BA90844465D03
:1019300004EB840101EBC4010BAA11444F55374657
:101940006D1C0B2DEDDD04EB840101EBC4010BAA32
:1019500011444F555FE0032C22D104EB840000EBCF
:10196000C4000BA90844077B00250FE004EB8400AA
:1019700000EBC4000BA90844465D04EB840101EBB5
:10198000C4010BAA11444F553746AD1C0B2DEDDD9C
:1019900004EB840101EBC4010BAA11444F553AE05A
:1019A000022C05D0042C03D0082C01D00A2C32D1F3
:1019B00004EB840000EBC4000BA90F5C0C2521E0B4
:1019C000BC300000140000102000001000C00920EE
:1019D00080C3C90147414D45204F564552203A2802
:1019E0002800000004EB840000EBC4000BA90844AD
:1019F000465D04EB840101EBC4010BAA11444F5571
:101A000037466D1E012DEDDA04EB840101EBC401B4
:101A10000BAA11444F55641C0D2CFFF66FAF07A99C
:101A20000BA8FFF7A4FC4FF4FC6000900A231A46B1
:101A3000DDE90710FFF7E2FBE6E500BF00203BB061
:101A4000BDE8F08F10B500244FF4000016498861FE
:101A5000400088614000C86100BF0846006C20F06B
:101A6000FF0008644FF40010C8618010C861502066
:101A700000F032F80C48406DC3B24FF400200A4920
:101A80008861502000F028F80748406D63F31F205C
:101A900003464FF400100449886100BF1C46000152
:101AA0008861204610BD000000C0092070B50446C2
:101AB00000254FF480000749C861E0B200F012F839
:101AC000FFF7C0FF05464FF48000024988612846B1
:101AD00070BD000000C0092000BF011EA0F1010080
:101AE000FBD1704710B504464FF400000849C861A7
:101AF000800088612046FFF731FD4FF08070044977
:101B0000C861FEF731FB4FF080700149886110BD5C
:101B100000C0092010B504464FF400000849886150
:101B2000800088612046FFF719FD4FF0807004495E
:101B3000C861FEF719FB4FF080700149886110BD44
:101B400000C0092010B504462046FFF707FD4FF0FE
:101B500080700449C861FEF707FB4FF080700149AF
:101B6000886110BD00C009204FF400000149886160
:101B70007047000000C009204FF4800001498861CF
:101B80007047000000C0092070B505460C464FF4B0
:101B900080000649C8612846FFF7A4FF2046FFF7EA
:101BA000B9FF4FF480000149886170BD00C0092071
:101BB0000000000000000000000000000000000025
:101BC0000000000000000000000000000000000015
:101BD0000000000000000000000000000000000005
:101BE000000080018001800180018001800180016E
:101BF00080018001800180018001800100000000DF
:101C000080018001000000000000000000000000D2
:101C100000000000CC00CC00CC00CC00CC00CC00FC
:101C200000000000000000000000000000000000B4
:101C300000000000000000000000000000000000A4
:101C4000000000000000000000000000600C600CBC
:101C5000600C30063006FE1FFE1F300638071803E2
:101C6000FE1FFE1F180318038C018C018C0100005D
:101C700000008000E003F80F9C0E8C1C8C188C0078
:101C80009800F801E007800E801C8C188C189C18B6
:101C9000B80CF00FE003800080000000000000009E
:101CA0000000000000000E181B0C110C110611069C
:101CB000110311039B018E01C038C06C6044604465
:101CC000304430441844186C0C3800000000000008
:101CD0000000E001F0033807180618063003F00191
:101CE000F000F8009C310E33061E061C061C063F51
:101CF000FC73F02100000000000000000000000064
:101D0000000000000C000C000C000C000C000C008B
:101D100000000000000000000000000000000000C3
:101D200000000000000000000000000000000000B3
:101D30000000000200038001C000C00060006000DD
:101D40003000300030003000300030003000300013
:101D500060006000C000C0008001000300020000BD
:101D6000000020006000C00080018001000300032B
:101D70000006000600060006000600060006000633
:101D80000003000380018001C0006000200000000B
:101D9000000000000000000000000000C000C000C3
:101DA000D806F807E0013003380700000000000003
:101DB0000000000000000000000000000000000023
:101DC0000000000000000000000000008001800111
:101DD000800180018001FC3FFC3F80018001800187
:101DE00080018001000000000000000000000000F1
:101DF00000000000000000000000000000000000E3
:101E000000000000000000000000000000000000D2
:101E1000000080018001000100018000000000003E
:101E200000000000000000000000000000000000B2
:101E30000000000000000000E007E00700000000D4
:101E40000000000000000000000000000000000092
:101E50000000000000000000000000000000000082
:101E60000000000000000000000000000000000072
:101E70000000C000C00000000000000000000000E2
:101E80000000000C000C0006000600060003000322
:101E900000038003800180018001C000C000C000F9
:101EA0006000600000000000000000000000000072
:101EB0000000E003F007380E180C0C180C180C1872
:101EC0000C180C180C180C180C180C18180C380ED0
:101ED000F007E00300000000000000000000000028
:101EE000000000018001C001F0019801880180011B
:101EF00080018001800180018001800180018001DA
:101F000080018001000000000000000000000000CF
:101F10000000E003F80F180C0C180C18001800183B
:101F2000000C000600038001C000600030001800B3
:101F3000FC1FFC1F0000000000000000000000006B
:101F40000000E001F807180E0C0C0C0C000C000649
:101F5000C003C007000C001800180C180C18180C4F
:101F6000F807E0030000000000000000000000008F
:101F70000000000C000E000F000F800DC00C600C64
:101F8000600C300C180C0C0CFC3FFC3F000C000CDF
:101F9000000C000C00000000000000000000000029
:101FA0000000F80FF80F180018000C00EC03FC07F5
:101FB0001C0E001C0018001800180C181C0C180E21
:101FC000F807E0030000000000000000000000002F
:101FD0000000C007F00F381C181818000C00CC03C4
:101FE000EC0F3C0E1C1C0C180C180C18181C380E8E
:101FF000F007E00300000000000000000000000007
:102000000000FC1FFC1F000C0006000600038003FC
:102010008001C001C000E00060006000700030007E
:102020003000300000000000000000000000000050
:102030000000E003F007380E180C180C180C3806D6
:10204000F007F007180C0C180C180C180C18380CAA
:10205000F80FE00300000000000000000000000096
:102060000000E003F007380E1C0C0C180C180C18BC
:102070001C1C381EF81BE0190018000C000C1C0E6C
:10208000F807F00100000000000000000000000060
:10209000000000000000000000000000800180013E
:1020A0000000000000000000000000000000000030
:1020B000800180010000000000000000000000001E
:1020C000000000000000000000000000800180010E
:1020D0000000000000000000000000000000000000
:1020E000800180010001000180000000000000006C
:1020F00000000000000000000000000000000000E0
:102100000010001C800FE003F8001800F800E00346
:10211000800F001C00100000000000000000000004
:1021200000000000000000000000000000000000AF
:10213000F81F000000000000F81F00000000000071
:10214000000000000000000000000000000000008F
:10215000000000000000000000000000000000007F
:1021600008003800F001C007001F0018001FC0075A
:10217000F00138000800000000000000000000002E
:102180000000E003F80F180C0C180C180018000CD5
:10219000000600038001C000C000C0000000000075
:1021A000C000C000000000000000000000000000AF
:1021B00000000000E00718180420C229224A114438
:1021C00009440944094409221113E20C0240042085
:1021D0001818E007000000000000000000000000E8
:1021E000000080038003C006C006C006600C600CBF
:1021F000301830183018F83FF83F1C700C600C6035
:1022000006C006C000000000000000000000000042
:102210000000FC03FC0F0C0C0C180C180C180C0C18
:10222000FC07FC0F0C180C300C300C300C300C1868
:10223000FC1FFC0700000000000000000000000080
:102240000000C007F01F38381C300C700660060014
:102250000600060006000600060006600C701C3032
:10226000F01FE00700000000000000000000000078
:102270000000FE03FE0F060E061806180630063094
:102280000630063006300630063006180618060EF0
:10229000FE0FFE0300000000000000000000000030
:1022A0000000FC3FFC3F0C000C000C000C000C007C
:1022B000FC1FFC1F0C000C000C000C000C000C00A0
:1022C000FC3FFC3F00000000000000000000000098
:1022D0000000F83FF83F1800180018001800180018
:1022E000F81FF81F18001800180018001800180030
:1022F00018001800000000000000000000000000AE
:102300000000E00FF83F3C780E6006E007C00300D5
:10231000030003FE03FE03C007C006C00EC03CF06E
:10232000F83FE00F00000000000000000000000087
:1023300000000C300C300C300C300C300C300C30F9
:10234000FC3FFC3F0C300C300C300C300C300C30AF
:102350000C300C3000000000000000000000000005
:1023600000008001800180018001800180018001E6
:102370008001800180018001800180018001800155
:10238000800180010000000000000000000000004B
:102390000000000600060006000600060006000613
:1023A0000006000600060006000618061806380794
:1023B000F003E00100000000000000000000000049
:1023C000000006300618060C060606038601C60045
:1023D00066007600DE008E0106030606060C06186F
:1023E0000630066000000000000000000000000051
:1023F0000000180018001800180018001800180035
:10240000180018001800180018001800180018000C
:10241000F81FF81F0000000000000000000000008E
:1024200000000EE01EF01EF01EF036D836D836D86A
:1024300036D866CC66CC66CCC6C6C6C6C6C6C6C6C8
:1024400086C386C3000000000000000000000000FA
:1024500000000C301C303C303C306C306C30CC30E8
:10246000CC308C310C330C330C360C360C3C0C3C21
:102470000C380C30000000000000000000000000DC
:102480000000E007F81F1C380E70066003C003C090
:1024900003C003C003C003C003C006600E701C3835
:1024A000F81FE0070000000000000000000000002E
:1024B0000000FC0FFC1F0C380C300C300C300C30C2
:1024C0000C18FC1FFC070C000C000C000C000C008E
:1024D0000C000C00000000000000000000000000E4
:1024E0000000E007F81F1C380E70066003E003C010
:1024F00003C003C003C003C007E006630E3F1C3CDB
:10250000F83FE0F700C000000000000000000000FD
:102510000000FE0FFE1F0638063006300630063873
:10252000FE1FFE0706030606060C061806180630F0
:1025300006300660000000000000000000000000FF
:102540000000E003F80F1C0C0C180C180C001C0009
:10255000F803E00F001E0038063006300E301C1C59
:10256000F80FE0070000000000000000000000007D
:102570000000FE7FFE7F80018001800180018001DC
:102580008001800180018001800180018001800143
:102590008001800100000000000000000000000039
:1025A00000000C300C300C300C300C300C300C3087
:1025B0000C300C300C300C300C300C300C30181847
:1025C000F81FE0070000000000000000000000000D
:1025D000000003600630063006300C180C180C188A
:1025E000180C180C380E30063006700760036003B4
:1025F000C001C00100000000000000000000000059
:1026000000000360C361C361C36166336633663330
:102610006633663366336C1B6C1B6C1B2C1A3C1EBA
:10262000380E380E0000000000000000000000001E
:1026300000000FE00C7018303018700C600EC007EE
:1026400080038003C003E006700C301C18180C30A7
:102650000E6007E000000000000000000000000025
:10266000000003C006600C301C383818300C6006BF
:10267000E007C003800180018001800180018001AA
:102680008001800100000000000000000000000048
:102690000000FC7FFC7F006000300018000C00068A
:1026A00000038001C0006000300018000C0006002C
:1026B000FE7FFE7F00000000000000000000000020
:1026C0000000E003E0036000600060006000600064
:1026D00060006000600060006000600060006000FA
:1026E00060006000600060006000E003E003000044
:1026F000000030003000600060006000C000C000DA
:10270000C000C001800180018001000300030003BC
:1027100000060006000000000000000000000000AD
:102720000000E003E00300030003000300030003D4
:102730000003000300030003000300030003000381
:1027400000030003000300030003E003E0030000B4
:1027500000000000C001C001600360036003300698
:102760003006180C180C00000000000000000000EB
:102770000000000000000000000000000000000059
:102780000000000000000000000000000000000049
:102790000000000000000000000000000000000039
:1027A0000000FFFFFFFF000000000000000000002D
:1027B00000000C000C000C000C000C000C000000D1
:1027C0000000000000000000000000000000000009
:1027D00000000000000000000000000000000000F9
:1027E000000000000000000000000000F003F807F7
:1027F0001C0C0C0C000FF00FF80C0C0C0C0C1C0F2C
:10280000F80FF018000000000000000000000000B9
:10281000000018001800180018001800D803F80F5E
:10282000380C181818181818181818181818380C00
:10283000F80FD803000000000000000000000000B6
:10284000000000000000000000000000C003F007CE
:10285000300E180C1800180018001800180C300E54
:10286000F007C003000000000000000000000000AE
:10287000000000180018001800180018C01BF01FF6
:10288000301C181818181818181818181818301C90
:10289000F01FC01B0000000000000000000000004E
:1028A000000000000000000000000000C003F00F66
:1028B000300C1818F81FF81F180018003818301CB2
:1028C000F00FC00700000000000000000000000042
:1028D0000000800FC00FC000C000C000F007F0076C
:1028E000C000C000C000C000C000C000C000C000E8
:1028F000C000C00000000000000000000000000058
:10290000000000000000000000000000E00DF80FD3
:10291000180E0C0C0C0C0C0C0C0C0C0C0C0C180EDB
:10292000F80FE00D000C0C0C1C06F807F00100007D
:10293000000018001800180018001800D807F80F39
:10294000381C1818181818181818181818181818E3
:102950001818181800000000000000000000000017
:102960000000C000C000000000000000C000C00067
:10297000C000C000C000C000C000C000C000C00057
:10298000C000C000000000000000000000000000C7
:102990000000C000C000000000000000C000C00037
:1029A000C000C000C000C000C000C000C000C00027
:1029B000C000C000C000C000C000F80078000000E7
:1029C00000000C000C000C000C000C000C0C0C06A1
:1029D0000C038C01CC006C00FC009C018C030C03EC
:1029E0000C060C0C000000000000000000000000BD
:1029F0000000C000C000C000C000C000C000C00097
:102A0000C000C000C000C000C000C000C000C000C6
:102A1000C000C00000000000000000000000000036
:102A20000000000000000000000000007C3CFF7E71
:102A3000C7E383C183C183C183C183C183C183C110
:102A400083C183C1000000000000000000000000FE
:102A50000000000000000000000000009807F80FD0
:102A6000381C1818181818181818181818181818C2
:102A700018181818000000000000000000000000F6
:102A8000000000000000000000000000C003F00F84
:102A9000300C181818181818181818181818300C9E
:102AA000F00FC00300000000000000000000000064
:102AB000000000000000000000000000D803F80F34
:102AC000380C181818181818181818181818380C5E
:102AD000F80FD8031800180018001800180000009C
:102AE000000000000000000000000000C01BF01FFC
:102AF000301C181818181818181818181818301C1E
:102B0000F01FC01B00180018001800180018000063
:102B1000000000000000000000000000B007F0030B
:102B200070003000300030003000300030003000E5
:102B30003000300000000000000000000000000035
:102B4000000000000000000000000000E003F003AF
:102B5000380E180C3800F003C007000C180C380EA3
:102B6000F007E0030000000000000000000000008B
:102B7000000000008000C000C000C000F007F007A7
:102B8000C000C000C000C000C000C000C000C00045
:102B9000C0078007000000000000000000000000E7
:102BA00000000000000000000000000018181818C5
:102BB0001818181818181818181818181818381C71
:102BC000F01FE019000000000000000000000000FD
:102BD0000000000000000000000000000C18180CAD
:102BE000180C180C300630063006600360036003D2
:102BF000C001C00100000000000000000000000053
:102C0000000000000000000000000000C141C141C0
:102C1000C3616363636363633636363636361C1CC2
:102C20001C1C1C1C00000000000000000000000034
:102C30000000000000000000000000001C38381CEC
:102C4000300C6006C003C003C003C0036006300C34
:102C5000381C1C38000000000000000000000000CC
:102C600000000000000000000000000018303018D4
:102C700030187018600C600CE00CC006C0068003B1
:102C80008003800380018001C001F000700000001B
:102C9000000000000000000000000000FC1FFC1FFE
:102CA000000C000600038001C00060003000180026
:102CB000FC1FFC1F000000000000000000000000DE
:102CC000000000038001C000C000C000C000C000C0
:102CD000C00060006000300060004000C000C00024
:102CE000C000C000C000C000800100030000000060
:102CF000000080018001800180018001800180014D
:102D000080018001800180018001800180018001BB
:102D1000800180018001800180018001800100002C
:102D200000006000C000C0018001800180018001BE
:102D30008001000300030006000300018001800100
:102D40008001800180018001C0006000000000005F
:102D50000000000000000000000000000000000073
:102D6000F010F81F080F0000000000000000000035
:102D70000000000000000000000000000000000053
:102D80000000000000000000000000000000000043
:102D90000000000000000000000000000000000033
:102DA0000000000000000000000000000000000023
:102DB00000000000000000000000C003300C0810FC
:102DC000042004200240024002400240024004204D
:102DD00004200810300CC0030000000000000000B8
:102DE00000000000000000000000C003F00FF81F0A
:102DF000FC3FFC3FFE7FFE7FFE7FFE7FFE7FFC3FB1
:102E0000FC3FF81FF00FC0030000000000000000AE
:102E10000000000000000000000000000000E007CB
:102E2000F00F181818181818181818181818F00F84
:102E3000E0070000000000000000000000000000AB
:102E40000000000000000000000000000000E0079B
:102E5000F00FF81FF81FF81FF81FF81FF81FF00FEA
:102E6000E00700000000000000000000000000007B
:102E70000000000000000000000000000000000052
:102E800000000000000000008001C0036006300C5C
:102E900018181818F81FF81F0000000000000000A4
:102EA0000000000000000000000000000000000022
:102EB00000000000000000008001C003E007F00FE8
:102EC000F81FF81FF81FF81F0000000000000000A6
:102ED0000000000000000000F81FF81F1818181864
:102EE000300C6006C00380010000000000000000FC
:102EF00000000000000000000000000000000000D2
:102F00000000000000000000F81FF81FF81FF81F65
:102F1000F00FE007C0038001000000000000000087
:102F200000000000000000000000000000000000A1
:102F30000000000000000000000000000000E001B0
:102F4000F00198018C01860186018C019801F00145
:102F5000E001000000000000000000000000000090
:102F60000000000000000000000000000000E00180
:102F7000F001F801FC01FE01FE01FC01F801F00185
:102F8000E001000000000000000000000000000060
:102F900000000000000000000000000000008007AA
:102FA000800F801980318061806180318019800FAD
:102FB000800700000000000000000000000000008A
:102FC000000000000000000000000000000080077A
:102FD000800F801F803F807F807F803F801F800F19
:102FE000800700000000000000000000000000005A
:102FF0000000C00120022002400130060808080835
:10300000080808080808080808082002200220020A
:1030100020022002200220022002200220020000C2
:103020000000C001E003E003C001F007D80DD80D97
:10303000D80DD80DD80DD80DD80D600360036003EE
:1030400060036003600360036003600360030000CB
:103050000000C001200220024001300608080808D4
:10306000080804100220022040012002200210045F
:1030700008080808041004100420044000000000A0
:103080000000C001E003E003C001F007D80DD80D37
:10309000D80DCC19C631C261C0016003600370064F
:1030A000380C180C0C180C180C300C6000000000C8
:1030B0004C560000534300000000000006040406C4
:1030C00004040604040604040604050505040505B5
:1030D00005040405050503030404040303040403B1
:1030E0000304040405050504050505040405050598
:1030F0000303040404030304040303040404050594
:103100000504050505040405050507070707070766
:10311000070707070707070000010000000100007C
:103120000100000000020200000202000002020092
:10313000000001000000010000010000000000008C
:103140000202000000020200000000000100000175
:103150000000010000010000070707070707070735
:1031600007070707070000000C000000060000002A
:103170000C00000006000000434F4E4752415453DC
:103180002120594F5520574F4E00000000000000ED
:10319000B031000000000010200000000801000015
:1031A000D031000020000010E002000024010000E7
:1031B0000000FFFF00000000000000000000000011
:1031C00001010000000000000000000000E1F50522
:040000050000016D89
:00000001FF
